:020000040804EE
:1000000000000824D5F7050821F8050891610508C6
:10001000976105089D610508A361050800000000BF
:10002000000000000000000000000000C9F004080B
:1000300021F805080000000063F1040873F10408CA
:1000400021F8050821F8050821F8050821F8050818
:1000500021F8050821F8050821F8050821F8050808
:1000600021F8050821F8050821F8050821F80508F8
:1000700021F8050821F8050821F8050821F80508E8
:1000800021F8050821F8050821F805088904060863
:100090009904060895040608A504060821F8050831
:1000A00021F8050821F8050821F8050821F80508B8
:1000B00021F8050821F8050821F8050821F80508A8
:1000C00021F8050821F8050821F8050821F8050898
:1000D00021F8050821F8050821F8050821F8050888
:1000E00021F8050821F805080000000021F805089E
:1000F00021F8050821F8050821F8050821F8050868
:1001000021F80508F1F4050821F8050821F805088B
:1001100021F8050821F8050821F8050821F8050847
:1001200021F8050821F8050821F8050821F8050837
:1001300021F80508A31E050821F8050821F805087F
:1001400021F8050821F80508000000000000000063
:1001500021F8050821F8050821F8050821F8050807
:1001600021F8050821F8050821F8050821F80508F7
:1001700021F8050821F8050821F80508000000000D
:1001800021F8050821F8050821F8050821F80508D7
:1001900021F8050821F8050821F8050821F80508C7
:1001A00021F8050821F8050821F8050821F80508B7
:1001B00021F8050821F8050821F8050821F80508A7
:1001C00021F8050821F8050821F8050821F8050897
:1001D00021F8050821F8050821F8050821F8050887
:1001E00021F8050821F8050821F8050821F8050877
:1001F00021F8050821F8050821F8050821F8050867
:1002000021F8050821F8050821F8050821F8050856
:1002100021F8050821F8050821F8050821F8050846
:1002200021F8050821F8050821F8050821F8050836
:1002300021F80508D1F7050821F8050821F8050877
:1002400021F8050821F805087D3E040821F8050875
:1002500021F8050821F8050821F8050821F8050806
:1002600021F8050821F8050821F8050821F80508F6
:1002700021F8050821F8050821F8050821F80508E6
:1002800021F8050821F8050821F8050800000000FC
:1002900021F8050821F8050810B5054C237833B975
:1002A000044B13B10448AFF300800123237010BD49
:1002B000A01C002400000000B4D4070808B5034BBC
:1002C0001BB103490348AFF3008008BD00000000E4
:1002D000A41C0024B4D40708154B002B08BF134BF3
:1002E0009D46A3F5803A00218B460F461348144AD9
:1002F000121A2AF08DFB0F4B002B00D098470E4BA3
:10030000002B00D098470020002104000D000D486C
:10031000002802D00C4816F0F7FD29F07BFE2000E3
:10032000290011F0AFF817F007F800BF000008002F
:100330000000082400000000E1130508A01C0024B0
:10034000F05F0124096F050800000000704710B439
:10035000D0E90040A4465DF8044B604730B40D4638
:10036000046811461A462846234630BC184710B583
:100370000446006818B1237B0BB108F0C1FF20468A
:1003800010BD0B6803604B6843608B6883607047E7
:1003900000EB81011846920008B52AF03BFA0020D4
:1003A00008BD0000FBFE407AB4EEE70AF1EE10FA59
:1003B00008DD30EE677ADFED066AB4EEE67AF1EE3C
:1003C00010FA01D4FAFE407AB0EE670A704700BF17
:1003D0006F12833A000000004942B2EE087A07EE3D
:1003E000901A70B52DED088BB8EEE78A82B0F7EE63
:1003F000007A06460024DFED32AA38EE077A9FED38
:1004000031BAF0EE678A87EE87AA9FED2B9BD6E97B
:1004100001235343A3424AD9356801A905EB84055A
:10042000D5ED007AB7EEE76AB4EE496BF1EE10FA5B
:1004300048BFF0EE6A7AF0EEE77A17EE900A26F0FF
:100440002FFEDFED217A06EE900A9FED207AE6EE90
:100450008B7AA6EEA77ADFED1E7AE6EE877AF0EECB
:10046000486AB0EE677ADDED017AF8EEE77A77EE6A
:10047000877A9FED187A67EE877AB2EE047AE7EE14
:10048000876A6AEE267AF5EEC07AF1EE10FA0BD49E
:10049000F4EE687AB7EE007AF1EE10FA77FE277A7A
:1004A000C5ED007A0134B2E7DFED0B7AF8E7002002
:1004B00002B0BDEC088B70BDA0C2EBFE4B48B43956
:1004C0006042A20DA8A19D3FF5CA83C0FBB3C04006
:1004D000E09248C09B209A3E0000000010B51446F0
:1004E000064A137A83F0010352F823300A46214664
:1004F00003EB400004F0FEF8002010BDC42C0024E3
:1005000008B528B9064B5F21064A074828F0FCFDCC
:1005100030F8023CC01ABDE8084008F0F1BE00BF48
:100520002A2C0708A70F0708FB0B070838B5054654
:1005300008466B1E2B4205D00C4B3C210C4A0D4843
:1005400028F0E2FD15B90023184638BD0029FAD07D
:100550006C1C0121204408F0D1FE0028F3D0044493
:100560006B422340181A23F8020CEDE77E0C0708B3
:10057000D00F0708FB0B0708F8B507462D480D46B6
:1005800016460CF045FC044630B101462A4808F0F6
:10059000B9FE6FF00500F8BD08F096FEC7E900014E
:1005A00020460CF033FD286020460CF035FD234A30
:1005B00030601378002B3BD02B681978092905D0BF
:1005C0001F4B63211F4A204828F09EFD017809290E
:1005D00003D01E4B64211B4AF5E793ED037ADFED50
:1005E0001C7AB4EE677AF1EE10FA03D0194B6B2146
:1005F000144AE8E71B69093303D0174B6C21114AF1
:10060000E1E790ED037ADFED157AB4EE677AF1EE6B
:1006100010FA03D0124B6F210A4AD4E703698033E2
:1006200003D0104B7021074ACDE714702046B2E783
:100630001846B0E72D050408CA0907080800002479
:10064000FB090708420F0708310A0708C10A070813
:10065000F47B043DF90A0708340B07080000803BCF
:10066000780B0708B50B07082DE9F04F2DED048B2B
:1006700083B006460F4614461D469DF840800CF098
:10068000D3FC00287ED108F01FFE861B4FF47A723F
:100690004FF0000361EB0707B1463046BA463946D2
:1006A000C5E90E9A23F0E4FA0146A862B8F1000FFA
:1006B00002D0364808F026FE23786668092B344FAE
:1006C0003DD1D4ED047AA94694ED039A0024F8EEC6
:1006D000E78ADFF8C8B033574FEA840A08EE103AC9
:1006E000B8EEC88A38EE688A28EE098AB8F1000F99
:1006F0000BD057F82410584608F004FE18EE100AE4
:1007000008F0E8FD234808F0FDFD57F80A3009F12C
:10071000080945F83430013409ED018A032CDAD197
:100720001D480CF09FFC08F0CDFD831C14BF002079
:100730006FF0010003B0BDEC048BBDE8F08FA9465B
:100740000024164A56F804AB4FEA840BB8F1000FA8
:100750000CD0104657F82410019208F0D3FD5046F3
:1007600008F0B8FD0B4808F0CDFD019A57F80B30A2
:1007700009F1080945F83430013449F804AC032C78
:10078000E0D1CDE76FF00200D4E700BFA809070869
:100790000C00002463B2070801050408C509070816
:1007A0001FB5426810EE101AB2F5803F17D2836869
:1007B000B3F5803F13D292B200689BB2ADF800202F
:1007C0000190ADF8082002AA03906846ADF8023007
:1007D000ADF80A3003F0E0FE05B05DF804FB014817
:1007E000FAE700BF0CFCFFFFF0B4D0E90147066850
:1007F0007D10FF0706EB050044BF75592C59A44630
:10080000F0BC6047F0B4D0E9014706687D10FF07EF
:1008100006EB050044BF75592C59A446F0BC60474F
:1008200007EE901A012AF8EE677A07B520EE270A3C
:1008300060EEA70A18D1B8FE400AFDEEC07AB8FEF5
:10084000600A17EE903AC01A07EE900AB8EE677A7F
:10085000C7EE007AFBFE677AFDEEE77ACDED017A0E
:10086000019803B05DF804FBFFF79CFDB0EE406A11
:10087000B0EE600AFFF796FDFDEEC07ABDEEC66AE7
:1008800017EE903A16EE102AD31ADCE707EE901A0C
:10089000012AF8EE677A07B520EE270A60EEA70A6C
:1008A00026D1B8FE406ABDEEC66AB8FE600A16EEF2
:1008B000103AC01AB8EEC66A07EE900AB8EE677A28
:1008C000C7EE007AFBFE677AFDEEE77ACDED007A9F
:1008D000009B013B07EE903AF8EEE77AA0EE276A1C
:1008E000BDEEC66A8DED016A019803B05DF804FBA8
:1008F000FFF758FDBDEEC06AB0EE600AFFF752FD8B
:10090000FDEEC07A16EE102A17EE903AD31AD0E711
:10091000C3680BB19B681847704770B504460E4614
:10092000154633B10360002323732046C4E90165F3
:1009300070BD90000121704308F0E0FC01232060AD
:10094000F2E700007FB5141E06460D46B8BF6418D6
:10095000E4B10023224601216846FFF7DEFF00983C
:10096000B8B12D1BA400AD002246711929F052FF29
:100970002A463146301929F0E7FF22460024009923
:10098000304629F047FF6846FFF7F1FC204604B0E7
:1009900070BD014CF7E700BF16FCFFFF2DE9F047E3
:1009A0002DED048BF7EE008A824688460027B0EED4
:1009B000689ADAF80430BB4247D9DAF80850002DBB
:1009C00041D04FEA8509DAF80040294609FB07447F
:1009D000204607F09DFEC8BB264604EB0903B34240
:1009E00006D0D6ED007A77EEA77AE6EC017AF6E744
:1009F000B8F1010F27D107EE909A94ED008A6D00AF
:100A0000F8EE677AC8EEA77A17EE900A26F08CFD0A
:100A100007EE900A68EE277AE4EC017AB44212D02D
:100A200007EE905A94ED008AF8EEE77AC9EE277A3D
:100A300017EE900A26F078FD07EE900A68EE277A06
:100A4000E4EC017AEAE70137B3E70020BDEC048B60
:100A5000BDE8F0872DE9F047904699468A6805463B
:100A600083680F469A4263D1426809EB08034968DC
:100A7000134499425CD1002A5DD044464FF0010AEC
:100A800000263868AB682968F4B19A00013C02FB83
:100A9000061102FB040029F0BDFE16B9BAF1000FE1
:100AA0000FD06B68013BB34206D1BAF1000F00D101
:100AB000013E4FF0000AE4E7BAF1000FF8D001362A
:100AC000DFE74FF0010ADCE76A684FEA8806A246D2
:100AD000920003FB06005A4329F09CFE6E68013E1B
:100AE000A1452ADD6B6804EB0800AA681844296850
:100AF00092003B6802FB061102FB003029F08AFEDF
:100B000016B9BAF1000F10D06B68013BB34206D1A1
:100B1000BAF1000F00D1013E4FF0000A03E0BAF134
:100B2000000FF8D001360134DAE74FF0010AFAE796
:100B30000348BDE8F0870348FBE70020F9E700BF62
:100B400014FCFFFF12FCFFFF07EE101AD0E901139F
:100B50005943002399420AD0026802EB8302013311
:100B6000D2ED007A77EEC77AC2ED007AF2E7002084
:100B70007047000010B507EE900A06EE901A12B307
:100B80000BB3012A02D11860002010BD501E36EEB2
:100B9000E77A1C46002106EE100AF8EE465A87EE68
:100BA000256A07EE101A01318842B8EEC77AF0EED6
:100BB000675AE6EE075AE4EC015AF2D803EB8203D7
:100BC00043ED016AE0E70148DFE700BF10FCFFFFEB
:100BD000D0E9012130B52DED028B91B003684A4375
:100BE000012104A8FFF799FE0122002308A811465D
:100BF000FFF793FE089B002B79D0059A099B9A4238
:100C000077D10A9B012B74D10024059BA3420FD9F5
:100C1000069901AB04986A468D0004FB050003F0B9
:100C20000BFD089B009A03EB840301341A60ECE788
:100C3000012200230CA81146FFF76FFE0C9B002B2E
:100C400051D0059A0D9B9A424FD10E9B012B4CD14E
:100C50000024059BA3420FD9069903AB049802AA6E
:100C60008D0004FB050003F0C7FC0C9B029A03EB0C
:100C7000840301341A60ECE7089BF7EE008A04A8AD
:100C800093ED007A0C9B17EE101AD3ED007A77EEF5
:100C9000C77A9FED1F6BB7EEE75AB4EEC65BF1EE75
:100CA00010FA54BF88EEA78AB0EE688AFFF74CFFAF
:100CB000044650B9B4EE688AF1EE10FA05D0B0EEF1
:100CC000480A04A8FFF76CFD04460CA8FFF74FFB89
:100CD00008A8FFF74CFB04A8FFF749FB204611B01A
:100CE000BDEC028B30BD0C4CEFE70C4CEDE70A4C31
:100CF000EEE70A4CECE70CA8FFF739FB08A8FFF772
:100D000036FB04A8FFF733FB22F074F8F6E7F8E7A8
:100D1000FCA9F1D24D62503F16FCFFFF14FCFFFF0F
:100D20002DE9FF410646D8000C4690461F4608F0C4
:100D3000E3FA054660B103AB4046009300231A4630
:100D4000194608F089F9804620B9284608F0D8FAF3
:100D5000164828E0314604EB87072E462A4608F05D
:100D600041FAA74206F1080616D016ED017A16EDF3
:100D7000026AB7EEC77AB7EEC66A27EE077BA6EE21
:100D8000067B51EC170B26F07BFB41EC170BF7EEC3
:100D9000C77BE4EC017AE4E7404608F0B1FA284664
:100DA00008F0AEFA002004B0BDE8F08116FCFFFFA9
:100DB0000129DFED2F7A70B502D8C2ED007A70BD3F
:100DC0008D08034604462E4610348EB114ED047A85
:100DD000013E77EE877A14ED037A77EE877A14ED89
:100DE000027A77EE877A14ED017A77EE877AEBE76D
:100DF00000EB051001F00306044600EB8606B44242
:100E000004D0B4EC017A77EE877AF8E707EE101A8F
:100E1000B8EE477AC7EE876ADFED157A1033CDB1A9
:100E200013ED046A013D36EE666AE6EE067A13EDCE
:100E3000036A36EE666AE6EE067A13ED026A36EE6D
:100E4000666AE6EE067A13ED016A36EE666AE6EE4B
:100E5000067AE3E7844206D0B0EC016A36EE666AB1
:100E6000E6EE067AF6E7C7EE876AC2ED006AA6E705
:100E70000000000082684B689A42F0B50E4687B0C9
:100E800043D18968012940D1436895B200689CB27A
:100E9000ADF80A50039003FB02F0ADF80840800063
:100EA000ADF81050ADF8124008F028FA059070B374
:100EB00004A902A803F086FB044618BB05460027D8
:100EC000BDF810300598AB421AD9BDF8121001AA2E
:100ED0008B0005FB0300FFF76BFFDDED017AF5EEFC
:100EE000C07AF1EE10FA09DB17EE900A26F01CFB2F
:100EF000336803EB850301351860E1E73846F7E70F
:100F000008F0FEF9204607B0F0BD024CFAE7024CAB
:100F1000F8E700BF14FCFFFF16FCFFFF0000000015
:100F20002DE9F04F0546914698460F462DED028B70
:100F300091B0002900F0E9804E1E416800238268CC
:100F40007610684601EB4601FFF7E7FC009B002B9B
:100F500000F0D980B6B26946284633463246FFF7DC
:100F600079FD044600286ED103460122029904A8A7
:100F7000FFF7D3FC049B002B00F0C3800023012269
:100F8000029908A8FFF7C9FC089B002B00F0B78066
:100F90006B68A34262D9029A0CA8009B910004FBE3
:100FA00001333946FFF7B9FC0C9A002A41D00E995B
:100FB000059B994250D1069B012B4DD1049B890082
:100FC000DDF834A003EB010B1846584513D1AA688D
:100FD000920002EB030C6243D21A634524D09818A6
:100FE0002968B3EC017A0144D1ED007A77EEC77A33
:100FF000C1ED007AF1E794464FF0000EDFED4E7A36
:10100000F24507D09CED007A0EF1010E8C4477EE8C
:10101000877AF5E707EE10AA0432F8EE476A87EE02
:10102000A67AA0EC017AD0E70CA80134FFF79FF96B
:10103000AEE7424C0CA8FFF79AF908A8FFF797F91A
:1010400004A8FFF794F96846FFF791F9204611B01C
:10105000BDEC028BBDE8F08F394CEBE733463246EE
:1010600069462846FFF7F6FC04460028E5D1064607
:101070009FED2F8B6B68B34239D9029A0CA8009B65
:10108000910006FB01333946FFF747FC0C9B3BB34D
:10109000B9F1000F1FD008A90CA8FFF7EBFE82469C
:1010A00000BB029B2A689B00089903FB06220B44A5
:1010B000994210D0B1EC017A92ED005AB7EEC77A9E
:1010C000B7EEC55A37EE087B85EE076BB7EEC66BF9
:1010D000A2EC016AECE70CA80136FFF748F9C9E772
:1010E000DFF858A00CA85446FFF741F9A5E7B8F17E
:1010F000000FA2D02846FFF76BFD04469DE70F4C7A
:101100009BE70E4C9CE70D4C9DE70C469EE70CA818
:10111000FFF72DF908A8FFF72AF904A8FFF727F928
:101120006846FFF724F921F065FEF3E7F5E7F7E7F6
:10113000BBBDD7D9DF7CDB3D0000000016FCFFFF04
:1011400014FCFFFF202904D0B1F5807F0FD00E489A
:1011500070471023018203800C4B9A8982819A6820
:101160005B68826043600A4B4361002070478023C4
:1011700001820380074B9A8982819A685B6882604A
:101180004360054BF0E700BF08FCFFFF341E070873
:10119000A41D0708241E0708A41907082DE9F04715
:1011A00090B0154681460E46189C67087A1C9A42F4
:1011B00040F08F808C423AD33BD1C846434622460A
:1011C000012102A8FFF7A9FB0298B8B3B8F1000FFC
:1011D0000CD14FEA860A4946524629F01BFBA21B56
:1011E000029841469200504429F012FC202C0DF147
:1011F000280834D0402C32D0802C30D0B4F5807FF9
:101200002DD0B4F5007F2AD0B4F5806F27D0B4F587
:10121000006F24D0B4F5805F21D00023CDF800808A
:101220002046029E1A46194607F016FF04E026469D
:10123000C3E74FF00008C1E7044608B92A4E07E0AB
:101240002A46314607F0CEFF204608F059F800261E
:1012500002A8FFF78CF8304610B0BDE8F0872146B1
:101260004046FFF76FFF06460028F1D103462246AD
:10127000012106A8FFF751FB069A32B30023029919
:10128000404604F0BDF8069B00211A6808336960E7
:101290002A6005EBC70253F8040C08355160106052
:1012A0000122974203F1080305F1080509D953F813
:1012B000081C013245F8081C53F8041C45F8041CAE
:1012C000EFE706A8FFF753F8C2E706A8FFF74FF8C5
:1012D000B4E7064EBFE706A8FFF749F802A8FFF7F4
:1012E00046F821F087FDF9E716FCFFFF11FCFFFF30
:1012F0002DE9F0472DED028B90B082460D46164643
:101300001A9C670807F1010898457AD10023224604
:10131000012102A8FFF701FB029800286FD0A54227
:10132000514628BF25464FEA85094A4629F072FAF8
:101330000298621B00214844920029F069FB202C8E
:1013400022D0402C20D0802C1ED0B4F5807F1BD022
:10135000B4F5007F18D0B4F5806F15D0B4F5006FE8
:1013600012D0B4F5805F0FD0434622463146029832
:10137000FFF7D6FC054602A8FEF7F9FF284610B095
:10138000BDEC028BBDE8F08721460AA8FFF7DAFE24
:1013900005460028EFD103462246012106A8FFF7A3
:1013A000BCFA069A42B3002302990AA804F028F86E
:1013B000069B01241A689FED188B32605A6806EB71
:1013C000870304361A60A74212D9069801AA02219F
:1013D00000EBC40003F050F99DED017A0134B7EE43
:1013E000C77A27EE087BB7EEC77BA6EC017AEAE75F
:1013F00006A8FEF7BCFFBEE706A8FEF7B8FF084D3B
:10140000B9E7084DBAE706A8FEF7B1FF02A8FEF754
:10141000AEFF21F0EFFCF9E7CD3B7F669EA0F63FE3
:1014200016FCFFFF11FCFFFFF7B5BDF82050144676
:101430006E08771C9F421FD10095FFF759FFC8B96E
:1014400007EE905AB7EE005B231D2246B8EE677B8D
:1014500003EB860385EE076B92ED007A27EE077AA1
:10146000B7EEC77A27EE067BB7EEC77BA2EC017A10
:101470009342F1D103B0F0BD0048FBE714FCFFFF3D
:101480009FED1A7A07EE900A194AC7EE877ADFEDC8
:10149000196ADFED195AB7EE007A77EE877A17EE00
:1014A000903A1A44D20DD2059B1A07EE903A77EE85
:1014B000C77A9FED127AE7EE876A9FED117A27EEE1
:1014C000A76AA7EEA57AA6EE267ADFED0E6AE6EE0B
:1014D000077A07EE102ABAEEE47AE7EE267A9FED55
:1014E0000A7A67EE877A17EE900A704700002F4459
:1014F0005555D5C06DF48EBE1AE5A93E78606C3E98
:101500002D71FFBE1872313F00E08C44D0E90031EC
:1015100082684A43074903EB8202934209D0F3EC05
:10152000017AF5EE407AF1EE10FAF6D143F8041C98
:10153000F3E77047FFE6DB2E2DE9FF4106460C4638
:1015400017461D460A46002301216846FFF7E5F9C4
:101550000099002954D0A2000A9C0B46304606EBA5
:101560000208A5EB070CA4EB050E40453DD007EEA5
:10157000107AD0ED007AB8EEC77AF4EEC77AF1EEC1
:1015800010FA12DD06EE905AF8EEE66AF4EEE67A0C
:10159000F1EE10FA09D877EEC77A07EE10CAF8EE26
:1015A000C76A87EEA67A83ED007ADDED0A7AB0ECA1
:1015B000017AF8EEE77AB4EEE77AF1EE10FA12D596
:1015C00006EE905AF8EEE66AB4EEE67AF1EE10FA1C
:1015D00009DB77EEC77A07EE10EAF8EEC76A87EE06
:1015E000A67A83ED007A0433BFE70024304629F061
:1015F00011F96846FEF7BBFE204604B0BDE8F08155
:10160000004CF6E716FCFFFF38B5446805463CB1D0
:10161000206808B115F0F4FE0C21204615F0FCFE00
:10162000284638BD10B50446C06808B107F068FE0A
:10163000206908B107F064FE204610BD00000000DC
:101640002DE9F04F8D1C0446884617464FEA850A5F
:101650002DED088B8BB008EE903A50469DF878300F
:10166000039307F049FE064660B36268424540F0C6
:10167000F780A368BB4240F0F3809B000021206804
:101680005A4329F0C5F9DDED1C7AB8EE678A18EEE9
:10169000100AFFF7F5FEDDED1D7A8146B8EE679A78
:1016A00019EE100AFFF7ECFE2A460146334648467B
:1016B000FFF760FA504607F01FFE054620B9304696
:1016C00007F01EFE6C48C6E09FED69AB4FF0000BC3
:1016D000DFED6A9A9FED6ABA08F101091FFA8BF3F0
:1016E000994530DB990004930BF1010B6A183144E2
:1016F000D1ED007A0292C7EEA97A17EE900A25F092
:1017000053FCB7EE007A07EE900A049B029A37EE7C
:10171000C77A27EE0B7AB4EE478AF1EE10FA38FE5C
:10172000077AB4EE479AF1EE10FA48BFB0EE497A64
:10173000994502BFB7EEC77A37EE4A7BB7EEC77B53
:1017400082ED007AC8E7304607F0DAFD504607F030
:10175000D3FD064608B92846B2E7002301375A1CD4
:101760009BB2994517DB07EE907A05EB8301F8EE03
:10177000686AB8EEE77AD1ED007A27EE277AC7EEED
:10178000267AFBFE677AFDEEE77A17EE901A46F8A6
:1017900023101346E3E728463746002507F0B0FD3F
:1017A000A8454DD06B1CD7F80090012106A80493E2
:1017B00057F8043F05937B68A3EB090B02930023C2
:1017C0000BF1010A5246FFF7A8F8069BA3B3DDED23
:1017D000027A5246F8EEE77A17EE901A07EE909AE0
:1017E000F8EEE77A17EE900AFFF7C4F9029B4A4633
:1017F000514600930698059BFFF79EFE069800222F
:10180000934514DB039909EB0203D4F808C051B9DE
:1018100005FB0C332168013250F804CB01EB830344
:10182000C3F800C0ECE7616801FB0353F2E706A8C8
:10183000FEF79DFD049DB3E706A8FEF798FD41E77E
:10184000039B23B1D4E901329BB26260A3603046AE
:1018500007F056FD00200BB0BDEC088BBDE8F08F03
:101860000848F8E706A8FEF782FD21F0C3FA00BF9A
:10187000FCA9F1D24D62503F16FCFFFF00E08C4402
:1018800000002F4414FCFFFF38B50020254B002139
:10189000254CC3E90001206808B107F031FD00259F
:1018A000224B28201D60224B25601D6007F024FD7F
:1018B000204B044605614360032343610423036016
:1018C00002238360302007F017FDA061D0B1626968
:1018D00000212368534300EB8303984202D040F871
:1018E000041BFAE700239000E36107F005FD206286
:1018F00040B16369002200EB8303984206D040F8B0
:10190000042BFAE70C4807F0FDFC03E0A368E36052
:1019100000236362094B1C6038BD204607F0F0FCD1
:1019200021F068FAF02C0024E02C0024E82C00249C
:10193000E42C0024CDCC4C3F11120708D82C0024F5
:1019400038B50D460446FEF7E3FF2A6812B9E26097
:10195000204638BD044BE360234643F8042B0022A5
:1019600062605A60F4E700BF84090708884238B50E
:1019700004460D4608D0FEF7CBFFEB68E3601BB1D1
:101980005B68294620469847204638BD1FB58368C6
:101990000468012B12D0226900F10C040090694602
:1019A0005343C3612046094B0393094B0193002322
:1019B0000293FFF7DBFF6846FEF7AAFF204604B05C
:1019C00010BD6846FEF7A4FF21F014FA7809070855
:1019D000972204081FB5D0E901231AB904682169C8
:1019E000994211D09B1A00F10C0400906946C36122
:1019F0002046094B0393094B019300230293FFF701
:101A0000B5FF6846FEF784FF204604B010BD684667
:101A1000FEF77EFF21F0EEF99009070889220408FD
:101A20001FB50C4B1161694603930B4BCDE9003098
:101A3000002310460293FFF799FF04E06846FEF783
:101A400067FF21F0D7F96846FEF762FF002005B076
:101A50005DF804FB9C0907089103040810B50446CF
:101A6000406808B123689847204610BD2DE9F04131
:101A700088B0174605460E4607F026FC2A4B03AAF7
:101A800006930023CDE9040102A904A80793FEF7F9
:101A900073FD044600283BD1029B93F800C0D5E9B2
:101AA00001235343834220D984002968029BBCF15F
:101AB000090F21445A6891ED007A12D1D3ED036ADF
:101AC000C7EE267AB8FE677AD3ED047AF8EEE77AA5
:101AD00077EE877AFDEEE77A17EE903A13540130ED
:101AE000DDE7224482ED007AF9E700973346039A56
:101AF000DDE90401FEF7B8FD044607F0E5FBDDE98A
:101B00000423821A61EB030317469846C6E90E7850
:101B100006A8FFF7A3FF204608B0BDE8F08106A89D
:101B2000FFF79CFF21F066F90105040810B5FFF7E7
:101B30009DFF044628B907F0C5FB023008BF6FF0CF
:101B40000104204610BD00002DE9F04F834697B0F8
:101B5000A4480C46079317460378BFF35B8F13F036
:101B6000010511D115F0DEF970B12B4640F2931248
:101B700001219D48FEF7D1FE9A4815F0F5F99B4AE0
:101B80009B49994815F0BEF9974E3368002B00F039
:101B9000F08107F099FB974B1A68B2F5CA7FCDE93F
:101BA000020108D36FF00405934807F0ABFB284609
:101BB00017B0BDE8F08FD9680AA8D3E9015A1B69AC
:101BC0000591012106933368FEF7A7FE8B4B9D42DA
:101BD00009D08B4B9D4218D08A4B9D421BD08A481E
:101BE00007F090FB76E00025DFF83C924FF001080B
:101BF0002E46059B0EA8CDF838B00F93069B109388
:101C000000231493FFF7C2FE0BE00026DFF81C92BE
:101C10000125B046EDE70025DFF814920126A8461D
:101C2000E7E708AB52460AA90093784BC8478146BC
:101C300020B10146764807F065FB40E007F042FB23
:101C4000831C45D0DFF8ECA111A8DDE90813594346
:101C5000DAE9002312EB010B43F1000CCAE900BCE6
:101C6000FEF756FE0AA8FEF782FB07F02DFBDDE922
:101C70000223821A61EB030310464FF47A7219466D
:101C80000023C4E90C0121F0F3FF014660623FB379
:101C900060484FF0000B07F035FB53498A685A45FE
:101CA0001BD90A68029102EB8B020BF1010B106841
:101CB00007F010FB584807F025FB0299EEE76FF09C
:101CC000040511A8FEF724FE0AA8FEF750FB6EE7F4
:101CD0000546F6E76FF00405F6E7504807F012FBFB
:101CE00000214FF4C970DAE90023994208BF9042FD
:101CF00080F0428107F0E8FA002340F29312824616
:101D00008B460EA80121FEF708FE374B0E9A1B6882
:101D100003F24C6153F8040B994242F8040BF9D1D9
:101D2000B8F1000F15D0334B0EA89968DDE90F35D7
:101D30005D438B68898BB5FBF3F2CDE90F2300235C
:101D40000122FFF7EDF8014608B3354807F0DAFA4B
:101D500020E015B3274B02219A68DDE90F355D437A
:101D6000136993FBF1F301331093B5FBF3F30F9376
:101D700013888B4203D80EA8FEF72AFF03E05169AF
:101D80000EA8FEF729FB014608B12648DEE701232D
:101D9000CDE90F3507F098FA4EE0002EFAD0154B3A
:101DA0009968DDE90F365E430B69B6FBF3F2CDE9C6
:101DB0000F230B88022B0CD801232A46098C0EA86E
:101DC000FFF7AEF801460028BFD10123CDE90F3659
:101DD000E0E7496A0EA8FEF7FFFA01460028F4D0B2
:101DE000D3E700BFBC1C0024F82C00240000002412
:101DF0006F0304081800002411110708512F04086C
:101E000075290408C53804083A11070800007A4605
:101E100083110708A8110708D3AE070863B20708A3
:101E2000BE110708D61107089931040811270408C4
:101E300039350408F02C0024D4E90C23B2EB0A0A4B
:101E40004FF47A7263EB0B0B10EB0A054FF00003B3
:101E500041EB0B062846C4E90C56314621F008FF39
:101E6000606257B93A4621460EA8FFF75FFE4B4B1A
:101E700005461B682BB90EA827E7494807F042FA28
:101E8000F0E7079A002AF6D0D3F818E0BEF1000F69
:101E90006CD0196A002969D0D3F81480271DDA693B
:101EA0008C46002008FB02FA804507F1080717D08E
:101EB00000EB0A06DCED007A01300EEB860696EDAB
:101EC000007A77EEC77ACCED007A17ED027A77EEDA
:101ED000277AECEC017A57F808BCC6F800B0E3E7C3
:101EE00001321E68DFED2F7AB242DA6124BF002290
:101EF000DA615A6A9642264684BF01325A6200224B
:101F000048454F4618D093ED097A09F10109B1EC23
:101F1000016A0836F8EE476A86EE267AB4EEE77A6A
:101F200006ED017AF1EE10FADCBFB0EE677A1746E3
:101F30003A46F0EE477AE3E7986838B1D9688842C4
:101F400004D90131D9604FF0FF320DE093ED017AF1
:101F5000F4EEC77AF1EE10FAF5DB01211869914031
:101F6000014201D00021D960A26484E76FF0010230
:101F7000FAE76FF007051AE6002518E60A4815F09B
:101F8000FFF920F037FF11A8FEF7C2FC0AA8FEF700
:101F9000EEF9F6E7FAE70EA8F9E700BFD82C00241F
:101FA000F611070800000000BC1C00242DE9F041D8
:101FB000344C9AB0637A012B09D10026324807F0DD
:101FC000A1F9637A2BB901200CF04CFFF9E7012647
:101FD000F7E7002565722EB92C4807F093F91AB07F
:101FE000BDE8F0814FF47A631AAC01A8049505931B
:101FF000274B44F8503D2146FFF7A2FC50222946CA
:10200000204628F005FD01232A46214601A8FFF7B6
:102010009BFD014618B11F4807F074F929E01E4DD9
:102020002A680132032A2A601FDD1C4807F06AF97A
:102030000F991B48DDE9102307F064F9194807F0F0
:1020400061F90026184FDFF86480A159384607F07F
:1020500059F9A319586807F03DF9404607F052F9BD
:102060000836182EF1D100232B6001A8FEF750FC92
:10207000B5E701A8FEF74CFCB1E701A8FEF748FC64
:1020800020F0B8FEC42C0024051007087A100708B9
:10209000DD0404089A10070804000024BE10070895
:1020A000CB100708021107080611070863B20708DA
:1020B00010B5C4682CB94FF4FD720449044814F0FB
:1020C00047FA2468A446BDE8104060475F0E070841
:1020D000EC0E0708F8B5970083609DF818300446A9
:1020E0000E4615460376C0E900120121384607F076
:1020F00005F90121E060384607F000F900220346A7
:10210000206195426261BEBF326952196260E26825
:1021100032B128B131692A463046491BFFF7C8FF62
:102120002046F8BD2DE9F04F9946C36804460E4697
:1021300090462DED048B87B0002B00F08A80026959
:10214000002A00F08680006801EB080201698A42DB
:1021500000F281806268B11A54D54B46424631463E
:102160002068FFF7A5FF0546002850D1FFEE008A42
:102170004F46B7EE009A09EB8803C9EB860B4FF088
:10218000010ABB4294F818C04AD0616897ED008AF2
:10219000B142E068F0EE486AD4ED027A89BF226964
:1021A00090ED007A5A44D21988BF92ED007AE7EE9A
:1021B000676AC7ED006ABCF1000F12D0BAF1000FD8
:1021C0000FD0D7ED007AF4EEE87AF1EE10FA24D4CD
:1021D000F4EEC97AF1EE10FAD4BF4FF0010A4FF0D5
:1021E000000A012905D04FF0FF320193FEF7AAFB48
:1021F000019B61680437E268013602EB810202ED5F
:10220000018ABEE7FFF754FF05460028A5D02846FF
:1022100007B0BDEC048BBDE8F08F4FF0000AE0E79B
:10222000636943446361BCF1000FF0D0BAF1000F61
:10223000EDD14B460122414602A8FEF76EFB9FED11
:10224000090A02A8FEF7ACFA054602A8FEF78FF8C5
:10225000DDE7054DDBE7054DD9E702A8FEF787F876
:1022600020F0C8FD0000003816FCFFFF0EFCFFFF49
:1022700008B513460A46014602480068FFF752FFB8
:1022800008BD00BFDC2C002410B544680068214460
:10229000FFF70EFF10BD2DE9F84384680746984606
:1022A0000026B2FBF4F2B1FBF4F4A518A54217D94D
:1022B0004FF00009BA6806EB09034A450DD97A6860
:1022C00008EB8303386812F8091001222144FFF754
:1022D000EFFE30B909F10109ECE701341E46E5E7EC
:1022E0000020BDE8F883000008B5D0E90032D21A1A
:1022F0009210914202D3024821F03AF808BD00BF83
:10230000F80E07082DE9F843D0E900349146064657
:10231000E41A0F46A1EB0308A41014BF22460122C1
:10232000A41834D2B4F1804F31D294BB254615EBBA
:10233000080F18BFD9F80030D6F8009018BF45F83C
:102340000830B945A7EB090804D04246494628465B
:1023500028F0FAFA726808F10403BA422B44A2EB9F
:10236000070805D018464246394628F053FA034676
:1023700003EB0807B9F1000F02D0484615F040F80A
:1023800005EB8404C6E90057B460BDE8F8836FF03C
:102390004044A00015F00CF80546C8E70268F0B507
:1023A00005462DED028B85B0002A70D0D368002B36
:1023B0006DD01369002B6AD0012960EE200A60EE0F
:1023C000018A43D1F8FE600ABDEEE08AF8FE688A11
:1023D00018EE101A5B1A00240C2007EE903A2746DC
:1023E000F8EE677A87EEA87AFBFE477AFDEEE77A89
:1023F000CDED017AF8EEC87A019B013B07EE103A69
:10240000B8EEC77AE8EE877AFDEEE77ACDED027A8C
:10241000029B136114F0CCFF06468460C0E90044BF
:10242000029BA3422BD90137019B9F4227DC0394D7
:10243000D6E9011399421DD001B10C6004317160DD
:10244000FCEEE87A17EE903A1C44E9E7B0EE600A39
:10245000FDF7A8FFBDEEC08AB0EE680AFDF7A2FF47
:10246000FDEEC07A18EE100AF0EE408A17EE901AD0
:10247000411AAFE703AA3046FFF744FFE0E7002028
:102480006E6085ED028A05B0BDEC028BF0BD01489F
:10249000F9E700BF15FCFFFF2DE9F04F2DED028B92
:1024A0008DB0804600EE903A00EE102ABDF8640030
:1024B0000CAEBDF868A00290002046F81C1D5146E5
:1024C0009DED181ACDE906003046FFF767FF044678
:1024D000002866D10699D8F80430D1E90012521AC2
:1024E000B3EBA20F40F08980029A5508D8F8082073
:1024F0000135954240F0818005FB03F20346002040
:102500009A4216D14FF00009BFEE008AAB00DFED12
:10251000458A4F460393069AD2E900239B1AB7EBEC
:10252000A30F66D20023079A012108A8FEF7F5F948
:1025300006E0D8F8001001EB830101330860DFE703
:10254000089B002B52D0DDF818B039465846FFF7EB
:10255000CBFEDBF80030079A53F8271005988B184C
:10256000D0F810C0634584BFA2EB0C02D218089BC0
:10257000FFF79EFD834680B9BAF1020F1AD8029B7D
:10258000D8F8002000932B464A44DDE90710FEF7F7
:102590004BFF039B8346994418B35C4608A8FDF79C
:1025A000E6FE3046FFF730F820460DB0BDEC028B5A
:1025B000BDE8F08FDDE90923B7EE007A5343089AAE
:1025C0005B45DCD0F2EC017AF4EEC87AF1EE10FA59
:1025D0001ED4F4EEC77AF1EE10FA19DC0BF1010B00
:1025E000EEE708A80137FDF7C2FE94E7DFF83CB03C
:1025F000D3E74046FEF78AFFD3E70B4CD1E708A8A4
:10260000FDF7B5FE3046FEF7FFFF20F0F3FBF9E7DC
:10261000B0EE680A08A8FEF7C3F883460028AED0DB
:10262000BBE700BF0000003814FCFFFF16FCFFFFF3
:102630002DE9F04F14699846022315460E4612887C
:10264000D5ED030A8246006994FBF3F42DED028B6D
:102650000134BCEEC08A89B095ED020AA4B218EE2E
:10266000101AFEF7DDF804FB00FB81463068CBF161
:102670000002D6E901315943FEF764F9074678B103
:10268000214B1C6834B12046FEF7CCFF1C212046AC
:1026900014F0C2FE384609B0BDEC028BBDE8F08FE5
:1026A000D6E90132494604A85A433368A2EB0B022B
:1026B00003EB82032246FEF730F92B88F8EE487AC6
:1026C0005146029304A82B8A17EE902A0193EB68D7
:1026D0000093AB68FFF7E0FE074620B101460B48C8
:1026E00006F010FE07E0D8F800304B44C8F8003080
:1026F0000CB1C8F8044004A8FDF739FECAE704A8E5
:10270000FDF735FE20F076FBDC2C0024410E070897
:102710002DE9F04F154606468A462DED048B95B0FF
:1027200008EE903A05AC0FCD0FC4069B95E8070064
:10273000012B84E8070040F0FB8032696AB3BCEEED
:10274000E89ADDED076ABDF81430B8EE498A012B2E
:1027500066EE887AFCEEE77A17EE909A06D87B4B05
:10276000197809B14A44326101221A709DED087A44
:1027700067EE087AFCEEE77A17EE90BAB9EB0B0336
:1027800003930CD5B7EEC77A71488DED007BB7EE99
:10279000E67A53EC172B06F0B5FD6E4C6BE0326910
:1027A0004A4504D249466C4806F0ACFDF5E76B4F4C
:1027B000386838B16A4B1B684B4503D006F0A0FD62
:1027C00000233B603C686CB901214FEA890006F0A8
:1027D00095FD3860002800F0AD80614BC3F8009093
:1027E000604B1C600023229AC2E900335D4B5C4AB7
:1027F000196898461268914217DCCBF10005D8F8A9
:102800000020002A3DDD3B680021304603EB8203B7
:10281000A9EB0202FFF74CFC044660BB0F900CAA28
:1028200049463868FFF7FCF803E04F4806F06AFDB8
:10283000B3E70446E0B9229BB0EE680A05AA514608
:102840000CA8FFF7F5FE044690B9BBF1000F09D1C3
:10285000D8F800300CA8A3EB0B03C8F80030FEF743
:1028600057F8CCE72A4649463868FEF76BF8EFE799
:102870000CA8FEF74DF8204615B0BDEC048BBDE862
:10288000F08F1ABF0023554215464FF0000418BFC1
:10289000C8F800303369AB42EDD90CA80E931294FE
:1028A000CDE90C65FFF796F8229BB0EE680A05AA01
:1028B00051468146D0F810B0FFF7BAFE044648BB37
:1028C00019EE101ABDF81420DDED080A9DED070A77
:1028D000D9F81000FDF7DAFFC9F810B03169039B91
:1028E0004D1B2D1A2B44002B1D4617DCBDF8143050
:1028F000C8F80050012B0DD8144B1B7853B1DDEDF7
:10290000077A336928EE278ABCEEC88A18EE102AA7
:102910009B1A33610FA8FDF7FBFFACE73B682A4623
:10292000491B3046FFF7C4FB0028DFD00446F1E71F
:102930000E4CA0E70E4C9EE70CA8FDF7E9FF20F037
:1029400059FA0FA8FDF7E4FFF9E700BF092D0024AD
:102950002A0D070810FCFFFF870D0708E02C002454
:10296000E82C0024E42C0024EE0D070814FCFFFFE3
:1029700016FCFFFF2DE9F04FD2F804B081460D465A
:102980001788BBF1010F2DED048B08EE103A8BB0C8
:10299000D2ED028A92ED039AD2E90443059324D141
:1029A0000069002866D00223FCEEC87A3A46F0EEB1
:1029B000490AB0EE680A17EE901A94FBF3F301335C
:1029C0001FFA83FAFDF72CFF06460AFB00F8D5E94B
:1029D000011202FB01F0804509D92A4806F092FC59
:1029E00052463146284806F08DFC284C2AE0002348
:1029F0005A46314606A8C5E9016AFDF78EFF069BD7
:102A000093B3A4B202978DED009A18EE903A019418
:102A100018EE102A49462846FFF73EFD044620B12D
:102A200001461B4806F06EFC09E0022F10D828462C
:102A3000FEF7CEF8D0B90123C5F808806B6006A870
:102A4000FDF795FC20460BB0BDEC048BBDE8F08F84
:102A500005992846FDF7C0FC06460028EBD0014644
:102A60000C4806F04FFC03E00B4CE8E70446E6E7B1
:102A70003446E4E7094CE5E706A8FDF778FC20F0CA
:102A8000B9F900BFB00C0708C40C070814FCFFFF1D
:102A9000410E0708D611070816FCFFFF10FCFFFFC8
:102AA0002DE9F04F9DB09B4606468A46BDF8A430FE
:102AB000BDF8A0800493DDE92A9313B94FEA5B03C4
:102AC0002B931CA807EE90BAB9F1000F4FF000034A
:102AD00040F83C2DB8EE670ABDF8B01008BF4FF4BF
:102AE00096799DED271ADDED260ACDE90E33FFF725
:102AF00055FC0446002840F0AA800E9AD2E9002333
:102B00009B1A7268B2EBA30F40F0E480B36898455B
:102B100040F0E080DAF80430934240F0DB80DAF8ED
:102B20000820012A40F0D68003FB08F30021A342CD
:102B300005D0326802EB840201341160F7E7049B90
:102B4000414610A85D0800236F1C3A46FDF7E5FEDC
:102B5000109B002B00F0BC8001233A46414610A890
:102B600002932B9BCDE900935B46FEF769FD04467B
:102B7000002869D1AB0080463D4605930E9AD2E904
:102B800000239B1AB8EBA30F80F09E8000232A46F7
:102B9000012114A8FDF7C1FE149B002B00F09280C8
:102BA00000230F9A012118A8FDF7B7FE189B002BF0
:102BB00000F08580DDF8389041464846FFF794FBE9
:102BC000D9F800304FEA880B0F9A53F828100D9867
:102BD0008B18D0F810C0634584BFA2EB0C02D2184A
:102BE000189BFFF765FA814638BB049B149A009343
:102BF0002B460F991898FEF717FC8146E8B9149AEE
:102C00000598111D1346DFED3D7A0144B3EC017ABE
:102C1000994277EE877AF9D1F5EE407ADAF800300A
:102C20005B44F1EE10FA08BFDFED357AC3ED007AB0
:102C3000119B9D4212D0DFF8D0904C4618A8FDF7AA
:102C400096FB14A8FDF793FB10A8FDF790FB0DA8C9
:102C5000FEF7DAFC20461DB0BDE8F08F1298B0F503
:102C6000803F02D3DFF8A490E7E7B368B3F5803F75
:102C7000F8D208920121109AADF82E309B000A92EA
:102C80003268ADF81C1008FB03230BAAADF8260030
:102C900007A8ADF82C1009A9ADF81E70ADF8247086
:102CA0000C9301F043FC81460028C6D118A808F116
:102CB0000108FDF75CFB14A8FDF759FB5EE7DFF8A0
:102CC0004490BAE70F4CBCE73046FEF71FFCBBE769
:102CD0000C4CB9E70C4CBAE718A8FDF748FB14A850
:102CE000FDF745FB10A8FDF742FB0DA8FEF78CFC95
:102CF00020F080F8F3E7F5E7F7E700BF00000000F9
:102D0000FFE6DB2E16FCFFFF14FCFFFF0CFCFFFFB1
:102D10002DE9F04F2DED028B93B008EE103A866846
:102D200004469DF87C300F469046DDED1E8A9E429B
:102D30000993BDF880909DF890B0BDF894A006D09E
:102D4000794D284613B0BDEC028BBDE8F08F52469A
:102D5000F0EE680AB0EE480A41463869FDF760FDBA
:102D600065688542ECD100234A4629460AA8FDF74A
:102D7000D4FD0A9B002B00F0CB80002301222946C2
:102D80000EA8FDF7CAFD0E9B002B00F0B980239B17
:102D90003A46CDF818A00EA905930AA8229BCDEDBE
:102DA000018A0493BDF884308DED008ACDE9029349
:102DB0004346FFF775FE0546002840F0A2800C9BB5
:102DC000F7EE002A594FA5F500059FED593ADFEDC2
:102DD000593A9FED594ADFED594ADFED595A9FEDB7
:102DE000596ADDE90A10434301EB8300814220D098
:102DF0000B68B0EE635AB0EE647ADA192A409B1A77
:102E000007EE903A77EEE27AA7EE835AA7EE847A3D
:102E100067EEA76AA6EE857AE6EE877A07EE102AB5
:102E2000B8EEC77A27EE257AE7EE067AE1EC017A6A
:102E3000DCE701210AA8FDF7B1FD0546002860D1B5
:102E40000C98DDE90A1EBBF1000F16D1361A4FEAC5
:102E5000800C4B420020B600864552D088460027A1
:102E6000099ABA4248DD08EB0309226801374A444F
:102E700058F8049BC2F80090F2E70E9FF7EE002A84
:102E80004FEA800B8C4607EB8E0ADFF8A090DFF844
:102E9000BC809FED273ADFED273A9FED274ADFED13
:102EA000274ADFED275A9FED276A5745CED057F8BE
:102EB000043BB0EE635AB0EE647A03EB090202EA17
:102EC00008029B1A07EE903A77EEE27AA7EE835A51
:102ED000A7EE847A67EEA76AA6EE857AE6EE877A91
:102EE00007EE102AB8EEC77A27EE257AE7EE067AC3
:102EF000CCED007ADC44D8E7013061443344ABE7E1
:102F0000114D0EA8FDF733FA0AA8FDF730FA18E7BD
:102F10000D4DF9E70EA8FDF72AFA0AA8FDF727FAE2
:102F20001FF068FFF9E700BF14FCFFFF5555D5C03F
:102F300078606C3E6DF48EBE1AE5A93E2D71FFBE21
:102F4000000000341872313F16FCFFFF000080FFC4
:102F50002DE9F04F07EE903A5369D2F804900C46F1
:102F600006461788B9F1010F9568D16A2DED028BDD
:102F70009DB092ED038AD2ED048A0B9393690C9372
:102F8000D2E907A30D93536A0A93936A7CD17A1E00
:102F9000022A7BD80269002A7BD0FCEEE77A0DF189
:102FA000540B4FF000080A4601465846CDF8008001
:102FB000CDED097AFFF78EF83B4B1CA910A8CDF890
:102FC0004C80C3F800B033691493384B41F8343D5A
:102FD000FEF7B6FC3A460999F0EE680A3069B0EEA1
:102FE000480AFDF71DFC8046AEB2D4E9011206FB8B
:102FF00000FB02FB01F39B4508D92D4806F082F93E
:10300000324641462B4806F07DF93BE00A9BEDB283
:10301000CDED008A10A905930D9B01950493BDF891
:103020003030099A0393BDF82C30C4E901060293AD
:10303000204618EE103ACDE90697FFF769FE0546DF
:1030400020B101461C4806F05DF90FE0034601225D
:103050001FFA8AF12046FDF763FF054610B10146CD
:103060001648F0E70123C4F808B0636010A8FDF724
:103070004FFC15A8FEF7D6FA28461DB0BDEC028B12
:10308000BDE8F08F0E4DF1E70D4DF5E76FF47D755E
:10309000F2E70C4DF0E710A8FDF73AFC15A8FEF793
:1030A000C1FA1FF0A7FE00BFDC2C00247122040827
:1030B000B00C0708C40C0708990C0708BE110708D4
:1030C00014FCFFFF10FCFFFF2DE9F04F8FB0FCEE6A
:1030D000C07A95681446BDF860B00E46ADB217EEE2
:1030E000901A5A46D4ED040A94ED030A8246006908
:1030F0009846CDED087AFDF793FB05FB00F381467A
:10310000D6E901105A42099341433068FDF71AFC91
:10311000099B0746002833D10AA8D6E901124A4381
:103120004946D31A326802EB83032A46FDF7F5FBC2
:103130000123CDF81CB0514606930AA8636A089A89
:103140000593236A0493238B0393A38A0293237A20
:10315000019323690093E368FFF7DAFD074620B186
:1031600001460C4806F0CEF807E0D8F800304B4492
:10317000C8F800300DB1C8F804500AA8FDF7F7F8F8
:1031800038460FB0BDE8F08F0AA8FDF7F0F81FF041
:1031900031FE00BF990C07082DE9F04F1546074690
:1031A0002DED028BA7B008EE103A03911AAC0FCDAB
:1031B0000FC40FCD0FC495E80F0084E80F001B9BD0
:1031C000012B40F01381BDF86830013B022B00F267
:1031D0000F813B69002B00F00E8100250DF12C08BA
:1031E000249B394600954046259AFCEEC88AFEF796
:1031F00071FF3B6926A9894C0A9306A8884B09955B
:1032000041F8503DC4F80080FEF79AFBF8EE687A6A
:10321000DDED1D6A27EEA67ABCEEC77A17EE109A8E
:103220009DED1E7A67EE877AFCEEE77A17EE905AEC
:10323000B9EB0503CDE9043417D5B7EEC77A794861
:103240008DED007BB7EEE67A53EC172B06F05AF8BB
:10325000754C06A8FDF75CFB4046FEF7E3F92046F7
:1032600027B0BDEC028BBDE8F08F704C206838B100
:103270006F4B1B68994503D006F042F8002323608A
:103280002368BDF8686073B901214FEA890006F030
:1032900035F82060002800F0A580654B0022C3F8B7
:1032A0000090644B1A60634B0A9A19680A4491456E
:1032B00004D94946604806F025F8C9E7002232984B
:1032C000012EC0E900225A4A08BF02261268914224
:1032D00011DC9A46DFF854B1DAF80020002A38DD14
:1032E000DBF80030002106A803EB8203A9EB020201
:1032F000FEF7DEFE01E05148DDE704460028A8D1D4
:10330000159012AA4946DBF80000FEF789FB044637
:10331000D8B90096B0EE480A329B1AAA039912A8AF
:10332000FFF7D2FE044680B945B9DAF8003012A89A
:103330005B1BCAF80030FDF7EBFACDE76A4249465D
:10334000DBF80000FDF7FEFAEFE712A8FDF7E0FA60
:103350007FE71BBF002355421546CAF800303B6982
:10336000AB4241D90DF118091493002312A8CDE9FD
:1033700012951893FEF72EFBD0F810A0B0EE480A75
:1033800000961AAA329B83460399FFF79DFE0446D6
:10339000C0B93246CBF810A0DDED1E0A18EE901A27
:1033A0009DED1D0A5046FDF771FA3A69049B551BC5
:1033B0002D1A2B44002B1D4608DC1E4B059A1D6060
:1033C0000023136015A8FDF7A3FA42E7174B2A461E
:1033D0000A9948461B68491BFEF76AFE0028ECD094
:1033E0000446EFE7164C34E7002432E7154C36E785
:1033F0006FF47D7433E70C4C31E712A8FDF788FABF
:1034000006A8FDF785FA4046FEF70CF91FF0F2FC1E
:1034100015A8FDF77DFAF3E7F2E700BFDC2C0024E6
:10342000712204082A0D070810FCFFFFE02C00247D
:10343000E82C0024E42C0024870D0708DD0C070885
:1034400016FCFFFF14FCFFFF2DE9F04FFCEEC07AE5
:103450001669144693B00F46B6B217EE901A12884A
:10346000D4ED030A824694ED020A99460069CDED37
:10347000097AFDF7D5F906FB00FB80463868CBF1E9
:103480000002D7E901315943FDF75CFA05460028EF
:103490003ED141460AA8D7E901325A433B68A2EB24
:1034A0000B0203EB82033246FDF737FA2B4601226B
:1034B00041460EA8FDF731FA0E9B002B2CD0238835
:1034C00052460EA90AA80693E3690593A3690493DB
:1034D000A38A0393238A0293E3680193A36800936A
:1034E000099BFFF7DDFA054620B10146104805F0BB
:1034F00009FF07E0D9F800304344C9F800300EB1A5
:10350000C9F804600EA8FCF732FF0AA8FCF72FFFE9
:10351000284613B0BDE8F08F064DF3E70EA8FCF780
:1035200026FF0AA8FCF723FF1FF064FCF9E700BFA1
:103530002B0E070816FCFFFF2DE9F04F1546064637
:103540002DED048B9DB009EE103A029112AC0FCD17
:103550000FC40FCD0FC4139B95E80300012B84E823
:10356000030040F090813369002B00F08E81BDF89C
:103570004810FCEEC98A012910D1AB4A107858B125
:10358000F8EE687A9DED147A67EE877AFCEEE77ABA
:1035900017EE900A184430610123137000230229AA
:1035A000A24D0DF11409089307D82B6031463369F9
:1035B00048460993FEF7DAF913E01C2013F0F8FEF1
:1035C00001229B4B314604460092FEF783FD33698E
:1035D0001CA948462C600993964B41F8483DFEF7DC
:1035E000AFF9B8EE688ADDED146A9DED157A68EEE4
:1035F000267AFCEEE77A17EE90BA68EE077AFCEED0
:10360000E77A17EE908ABBEB080303930BD5B7EE6E
:10361000C77A89488DED007BB7EEE67A53EC172B1D
:1036200005F070FE48E0099A5A4504D2594683488D
:1036300005F068FE40E0824F386838B1814B1B6866
:103640005B4503D005F05CFE00233B603B68BBB9E3
:1036500001214FEA8B0005F051FE386050B92C680B
:1036600034B12046FDF7DEFF1C21204613F0D4FEC6
:10367000754C2BE0734B0022C3F800B0734B1A60FB
:1036800000232A9AC2E90033704B6E4A1968126807
:1036900091420EDC9A46DAF80020002A60DD3B6891
:1036A0000021484603EB8203ABEB0202FEF700FD6C
:1036B00015E0674805F026FE2C6834B12046FDF77A
:1036C000B1FF1C21204613F0A7FE624C4846FDF7CF
:1036D0001FF920461DB0BDEC048BBDE8F08F0446F9
:1036E00050B12D68002DF1D02846FDF79BFF1C211D
:1036F000284613F091FEE9E70D900AAA594638686A
:10370000FEF78EF9044660B12D6835B12846FDF705
:1037100089FF1C21284613F07FFE0AA8FDF7F8F860
:10372000D4E72A9BB0EE490A12AA02990AA8FFF729
:103730008BFE04460028E7D1B8F1000F09D1DAF872
:1037400000300AA8A3EB0803CAF80030FDF7E0F840
:10375000A1E7C8F1000259463868FDF7F3F8EEE733
:103760001BBF0023C2F100089046CAF8003033693D
:1037700043450BD82C68002CA8D02046FDF752FFFB
:1037800020461C21002413F047FE9FE70C930023E2
:103790000AA81093CDE90A98FEF71CF92A9BB0EE0F
:1037A000490A12AA02998246D0F810B0FFF74CFEDF
:1037B000044660B12D6835B12846FDF733FF1C2162
:1037C000284613F029FE0DA8FDF7A2F87EE7BDF804
:1037D000482018EE901ADDED150A9DED140ADAF86E
:1037E0001000FDF753F8CAF810B03269039BA2EB42
:1037F0000802A2EB00084344002B98462CDD0999EF
:1038000042463B684846A1EB0801FEF751FC0746DB
:1038100010B32C6834B12046FDF704FF1C2120466C
:1038200013F0FAFD3C46CEE7082D0024DC2C0024E2
:1038300048E17A3F712204082A0D0708870D07081E
:10384000E02C0024E82C002416FCFFFFE42C0024CC
:10385000EE0D070810FCFFFF164BC3F80080BDF803
:103860004830012BA6D1144B1B78002BA2D0DDEDE4
:10387000147A336928EE278ABCEEC88A18EE102A1B
:103880009B1A336196E70D4C23E70D4C21E71C2171
:10389000204613F0C1FD4846FDF73AF81FF0AAFA9A
:1038A0000AA8FDF735F8F6E70DA8FDF731F8F2E7BD
:1038B000F1E700BFE42C0024082D002414FCFFFFD6
:1038C00010FCFFFF2DE9F04F07EE903A07460C463B
:1038D00015882DED028BD2E9046397B092ED028A30
:1038E000D2ED038A0B9393690993D3690A935368C2
:1038F000012BD2E908A940F0B0800369002B00F049
:10390000AE80FCEEE77A0022022DDFF884B114923B
:10391000CDED087A07D8014611A8CBF80020159301
:10392000FEF724F814E01C2013F042FD0122544B52
:10393000394680460092FEF7CDFB3B6916A911A8D7
:10394000CBF8008015934F4B41F8243DFDF7F8FF6D
:103950002A460899F0EE680A1598B0EE480A1FFA50
:1039600086F8FCF75DFF074608FB00FBD4E901126F
:1039700002FB01F39B4513D9434805F0C3FC4246C3
:103980003946424805F0BEFC414B1C6834B1204624
:10399000FDF748FE1C21204613F03EFD3D4E4FE052
:1039A000C4E901080146002301220DA8FCF7B5FF78
:1039B0000D9B002B4DD00A9BB6B2069511AA05931C
:1039C0000DA9099B204602960493BDF82C30CDED3D
:1039D000018A03938DED008A089BFFF761F82C4B59
:1039E00006461F6837B13846FDF71CFE1C213846D5
:1039F00013F012FD26B13146274805F083FC1CE088
:103A0000022D0DD8012332461FFA8AF12046FDF718
:103A100087FA054668B10146204805F073FC1AE0B4
:103A200049462046FCF7D8FC054610B101461C4823
:103A3000F3E70123C4F808B063600DA8FCF797FC16
:103A400011A8FCF765FF304617B0BDEC028BBDE84E
:103A5000F08F144EF1E72E46EFE70E4EF3E7124ECD
:103A6000F1E71C21404613F0D7FC11A8FCF750FFEA
:103A70001FF0C0F90DA8FCF77AFCF6E7F5E700BFE8
:103A800048E17A3F71220408B00C0708C40C07080B
:103A9000DC2C002414FCFFFF2B0E0708BE110708C6
:103AA000D611070816FCFFFF10FCFFFF38B54FF4D6
:103AB000E1312C4809F01EFD2B492A480BF0A0F8F3
:103AC0002A4805F01FFC2A4805F01CFC4FF07650F0
:103AD00005F000FC274805F015FC4FF47A51264804
:103AE00005F010FC4FF47A71244805F00BFC244CCF
:103AF0000321244805F006FCFDF7C6FE4FF4FA50FA
:103B000026F03AFB0546206040B14FF4FA5026F00B
:103B100033FB606038B9284605F0F2FB1A48BDE86F
:103B2000384005F0EFBB00234FF47A62174918487C
:103B30002381C4E9033200F013F94FF40061144803
:103B400000F018F94FF47A520121114800F0ACF856
:103B500018B9104805F0D6FBE0E70F4B01221A70A8
:103B600038BD00BF0C8800244E1207086C120708ED
:103B700083120708B71207088F120708A412070854
:103B8000C42C0024BD120708EC1207089D3B040852
:103B9000102D0024D2120708C01C00242DE9F0418A
:103BA000DFF87C801B4800F03DF84146024619488A
:103BB00000F03BF8184B5C7A2CBB184A127802F0E4
:103BC000FF0C02B36FF0010140101D7AD3E9037EB0
:103BD0007E0001FB07813A46A2EB0708404514DD51
:103BE000013231F9068053F82540724524F80680E9
:103BF00006F102066446EFD3002285F00105DA6083
:103C000001221D725A72BDE8F081002CFBD0DA60EF
:103C1000F9E700BF102D0024C42C0024C01C002490
:103C2000C21C0024303000F062BC303000F033BCE5
:103C3000074B10B504460360806A08B111F07AFFA3
:103C4000236913B19B68201D9847204610BD00BF13
:103C5000CCA7070810B50446FFF7EAFF4FF48271BE
:103C6000204613F0D9FB204610BD000010B50446D5
:103C70000B48C4E902234FF0FF33C4E90433C4E91D
:103C800006330423C4E90001236204F1300000F08C
:103C9000F1FB002320462366024B1C6010BD00BFD1
:103CA0003C130708842D0024F0B5C5B005460E4628
:103CB000174600F02BF9F8B11622172103A80EF0D1
:103CC000C7FF40F63B7302AA1021ADF8083000236D
:103CD00003A8009302230EF00EFF40F6357302AAEC
:103CE000102103A8ADF808300023009302230EF042
:103CF00002FF03A8FFF79CFF164B1C68AC4202D0E2
:103D0000002045B0F0BDAB69013308BF1823C5E9F9
:103D1000046708BFAB6104F13005284600F0E2FB00
:103D20000D4B00211860284600F0EDFBA269B3009E
:103D3000394630462362094B00F008F90028DFD0ED
:103D400000F056FB0120E061DBE703A8FFF770FFFE
:103D50001FF050F8842D00242C2E00243B017D3FC1
:103D6000034B01661A68824218BF1860704700BF93
:103D7000842D0024303000F08BBB00002DE9F04191
:103D800000F13006164D0446304600F053FB2B6818
:103D9000834222D200F0E0FA124F236930463A689B
:103DA0009B011A443A602A6813442B6000F042FBDE
:103DB0002968814211D1304600F0A5FB304600F061
:103DC00091FB002338602B60236A23B9236E23B153
:103DD000BDE8F0411847013B2362BDE8F08100BF18
:103DE000802D00242C2E0024024B01461868FFF77A
:103DF000C5BF00BF842D0024034B01461B6803F19F
:103E0000300000F045BB00BF842D0024024B186831
:103E1000303000F00FBB00BF842D002410B500230C
:103E2000064C1A4619462046FFF720FF2046044A52
:103E30000449BDE8104013F065B800BF102D002400
:103E400000000024493E0408054B002210B504463A
:103E500040F8303B034B1A6000F0E4FA204610BDF6
:103E60003C130708842D002410B50446FFF7ECFF2F
:103E70007021204613F0D0FA204610BD024BD3F833
:103E8000840014F04BBE00BFCC2E00240C480D4A19
:103E9000016802F01F0341F0010103F500730160A6
:103EA000BFF34F8F0849203BC1F85C222032002B22
:103EB000F9DCBFF34F8FBFF36F8F0120FFF794BF83
:103EC000642F002400FC003800ED00E00C480D4A8F
:103ED000016802F01F0341F0040103F50073016063
:103EE000BFF34F8F0849203BC1F85C222032002BE2
:103EF000F9DCBFF34F8FBFF36F8F0020FFF774BF64
:103F0000642F002400FE003800ED00E00A4B1B780F
:103F1000A02B01D000207047084B1B780D2BF9D93E
:103F2000074B08481A78084B00FB02F0C01AB0FA99
:103F300080F04009704700BF00F0010801F001085F
:103F40000AF0010840420F0040787D012DE9F04F52
:103F5000B9B081460C46904608A81F4619F068F98A
:103F600042F6113245F222639C4218BF944203D0BC
:103F70004AF644439C427AD14FF480624FF4800069
:103F800026210123089240F2AD123290CDE913139D
:103F90001593614B12921B78A02B76D01B2308A897
:103FA000119318F06FFC5D4B02254FF0040BD3F812
:103FB000F4204FF0000A0A2603A942F400125848E0
:103FC000C3F8F420D3F8F42002F400120092009A0F
:103FD000D3F8E0202A43C3F8E020D3F8E0202A40B9
:103FE0000192019AD3F8E02042F01002C3F8E020D9
:103FF000D3F8E030CDF80CB003F01003049506952B
:104000000293029BCDF814A0079615F03BFF03A97D
:1040100044480796CDE903B5CDE905A515F032FF73
:10402000B4F5FA5F1BD042F611339C4217D0B4F5B9
:104030007A5F14D045F222639C4210D0B4F5FA4F57
:104040000DD04AF644439C4209D04BF680339C4243
:1040500018BFB4F57A4F02D0334B9C4203D109F11B
:10406000FF33012B20D9002039B0BDE8F08F4FF489
:1040700080634FF4800207200121089302233292CB
:104080004FF4AC72CDE9130182E7284B1B780D2B5E
:1040900084D9274A274B1178274A03FB01F393421F
:1040A00014BF1B2319237AE70223244E244D8021B9
:1040B0004FF480723360234B4FF40020DFF88CA064
:1040C000B4F5FA4FA9644FF010012B604FF00003D4
:1040D000EA644FF00102CAF80090A86169636B645A
:1040E000AB606B61EB602B626A602A65EA61C5E9CF
:1040F0000B3300F011812BD9B4F57A4F00F00A810F
:1041000040F2F680084B9C4232D00F4B9C4240F06C
:10411000058102212DE000BF00F001080044025893
:1041200000100258000402580077010001F0010855
:104130000AF0010840420F0040787D015C00002435
:10414000CC2E00240454005800EE0200600000242D
:1041500042F611339C4200F0D48040F2D480B4F592
:104160007A5F00F0DD8045F222639C4240F0D68009
:1041700004214FF4807000230122696210244FF45F
:10418000003128646A482B61AB62EB65EB6685F809
:104190003820EA63AA656C652966C5E91933C5E963
:1041A0001C2219F069FE624819F0ACFC00287FF46B
:1041B0005AAF604A0F24604BD2F8E0105C604FF4B5
:1041C000806441F400119860D860C2F8E010D2F821
:1041D000E010326801F400111C61012A574C039170
:1041E00003991C6000F094804FF400604FF400517C
:1041F0004FF4807258614FF400309961DA61032105
:104200000022042418624C48C5F884309D63C3E939
:104210000941C3E90B2214F0FDF9474814F05AF89C
:10422000044600287FF41FAF02460F218220444D30
:1042300013F0B6FD822013F0E5FD424B4FF001096B
:104240002846AC802B60C5F82090C5E9054413F0E2
:1042500051FE00287FF407AF296832688B68002A76
:1042600043EA09038B603ADD07EE107ADFED367A18
:10427000364D0FFA88F867EE277ADAF80030DFF863
:10428000D4B02846324FFCEEE77A2A816B81C5F81C
:104290000090C5ED017A17EE904A22F08BFB28467C
:1042A0005946ABF80480CBF8007022F009FC326864
:1042B0004A4514DDDAF8003005F14C00A5F8542029
:1042C000A5F85630C5E9139422F074FB594605F160
:1042D0004C00ABF80A8041F8067F22F0F1FBDAF8D7
:1042E0000040FFF793FDA40184421BD80120BBE6E8
:1042F0004AF644439C423FF40CAF4BF680339C4259
:104300000CD1082135E7B4F5FA5F07D1302130E749
:1043100001466DE706212CE70C212AE7002128E75A
:10432000182126E72046FFF767FD01209CE600BF25
:10433000CC2E002400440258542E00241C54025851
:10434000302E0024004C02580000004F942D002411
:1043500002002000882D00241F4B2DE9F0411C682D
:104360001A6814F001041AD01C4E22F001023168C0
:104370001A60002911DD1A4D00241A4FDFF86880F9
:1043800039682A4608EB04004C3501EB440101343E
:1043900022F08EFC3368A342F2DCBDE8F0815207C4
:1043A000FBD50E4E1A68316822F0040200291A600B
:1043B000F3DD0B4D0B4FDFF8348039682A4608EBEC
:1043C00004004C3501EB4401013422F071FC3368E8
:1043D000A342F2DCBDE8F081642F00245C000024DD
:1043E000942D00242C2E002400FC003800FE003800
:1043F00008494FF48062084B002010B40C6819681B
:1044000018600649064892FBF4F25DF8044B92B23C
:1044100019F070BD5C000024642F002400FC0038FB
:10442000CC2E0024704710B50446302112F0F4FF62
:10443000204610BD8069704710B504468169006947
:1044400026F0B0FB2061D4E9050126F0ABFBA269A0
:1044500060610021206926F0DBFAA2690021606911
:1044600026F0D6FA0023E362E36123626362A3626B
:1044700010BD0000054B10B503604FF400730446F7
:104480008361FFF7D9FF204610BD00BF5413070812
:104490008161FFF7D1BF38B504460846E36A0633A9
:1044A00004EB83035D68E36A083304EB83035B6812
:1044B000ED1A954228BF154695B1E26AE36A0833C2
:1044C00004EB83035968131D2A4654F8233019441A
:1044D00026F0A0F9E36A04EB8304636A2B44636269
:1044E000284638BDC36A043350F823007047C36AB6
:1044F000063300EB83035A68C36A083300EB83007A
:104500004068101A7047C36A6BB90123C362C36A5B
:10451000063300EB83035960C36A083300EB830062
:104520000023436070470023F0E700002DE9F043CB
:1045300047884C88D0F804E04FEA8709D2F804C0D5
:10454000A400D1F80480008865464646A444C7B15B
:104550003A4633467146DFED0F7A93ED007A013A21
:10456000F1EC016A2344E6EE877AF6D1E5EC017AB4
:10457000AC4506F10406EAD10138CE44E4D1BDE8E9
:10458000F083DFED047A0436E5EC017AAC45DED148
:10459000F2E700BF0000000007EE101A4388018810
:1045A00003FB01F310B4546842683BB1F2EC017AAA
:1045B000013B67EE877AE4EC017AF7D100205DF8E1
:1045C000044B7047F0B547884D68048846688FB142
:1045D000A4004FEA870E05EB040C2A463B46314601
:1045E00051F8040B013B10602244F9D104357644A4
:1045F0006545F2D10020F0BD012990ED007A30B47C
:1046000014D0041D00250120F4EC017AB4EEE77A01
:10461000F1EE10FA02D5B0EE677A0546013081421C
:10462000F2D182ED007A1D6030BC7047002582ED2A
:10463000007A1D6030BC7047012990ED007A30B4DB
:1046400014D0041D00250120F4EC017AB4EEE77AC1
:10465000F1EE10FA02DDB0EE677A054601308142D4
:10466000F2D182ED007A1D6030BC7047002582EDEA
:10467000007A1D6030BC704700B52DED028B83B011
:10468000019141B30B469FED1A7AF0EC017A013BA0
:10469000A7EEA77AF9D1DDED017AF8EE677A00236B
:1046A000C7EE276AF5EEC06AF1EE10FA05DA13607C
:1046B00003B0BDEC028B5DF804FBF5EE406AB1EE91
:1046C000E68AF1EE10FA0BD482ED008A03B0BDEC5D
:1046D000028B5DF804FB9FED067A07EE901ADCE78B
:1046E00016EE900A019222F01FFF019AECE700BF3C
:1046F000000000006AB19FED077A30F9023B013AF1
:1047000007EE903AF8EEE77A67EE877AE1EC017A05
:10471000F3D170470000003821B30139F0B44908E3
:10472000171D07EB810C1188043232F8023C89080E
:1047300094454FEA93034FEA810550F821604FEA10
:10474000830450F8237005F1040504F1040440F8D3
:10475000217040F823604359015941510351E2D17E
:10476000F0BC7047704700BF2DE9F047B0F800E09B
:10477000074642684FEA5E0901EB8E085FEADE0EEB
:104780002DED068B00F09E804FEA890401F11003A5
:1047900002F1100C08F11006103403EB0E1E0D1977
:1047A000444456ED047A103353ED084A103516EDA3
:1047B000034A0CF1100C74EEA79A56ED012A14ED81
:1047C000045A74EEE74A54ED035A103613ED062AE4
:1047D000103456ED066A15ED081A55ED071A32EE3B
:1047E00026AA15ED063A31EE059A55ED053A71EE19
:1047F000A58A14ED067A35EE415A54ED057A75EE28
:10480000E15A53ED070A33EE078A13ED056A33EEDA
:10481000A70A43ED089A70EE84AA76EE229A03ED79
:1048200006AA30EEC44A43ED07AA37EE437A43EDB9
:10483000059A77EEE37A05ED089A72EE666A45ED21
:10484000078A36EE626A05ED068A734505ED050AAC
:104850005CED073A1CED083A64EE231A23EEE41AE5
:1048600023EE652A65EE032AA4EE031AE4EE831A0A
:10487000A5EE232AE5EEA32A06ED071A46ED081A4F
:1048800004ED082A44ED072A5CED055A1CED065A92
:1048900026EE253A65EEE63A25EE674A67EE054ACA
:1048A000E6EE053AA6EE853AA7EE254AE7EEA54ADA
:1048B00006ED063A46ED053A04ED064A44ED054A92
:1048C0007FF46FAF1FFA89F908460223494600F0CA
:1048D000C1FA49467A6840460223BDEC068BBDE822
:1048E000F04700F0B7BA00BF2DE9F04F04880E463C
:1048F000D1ED007A6408D1ED015A2DED048B8FB013
:10490000A30064080C9001EB0308406898ED007A5E
:1049100000F1180502460B940832029508EB0305D6
:1049200098ED014A0392024695ED006A2F46103237
:10493000D5ED014A77EE866A08900192A21EEC1826
:1049400077EEC67A77EE262A520894ED005A35EEB5
:10495000A46A94ED013A74EE273A72EE852A0A941D
:1049600075EEE45A079576EE444A204612EE90CA58
:1049700076EEC76A73EEC33A46F808CB77EEC47A90
:1049800098ED012A35EEC74AD4ED012A76EEC56AC4
:1049900036EE026A049637EE257A464613EE90CA42
:1049A00074EEC35A36EE226A77EE837A74EE054AC5
:1049B00081ED016A37EE457A46F808CB16EE90CACB
:1049C00006962E46C8ED014A46F808CB17EE90CA67
:1049D00000962646C5ED015A46F808CB059684EDAB
:1049E000017A099200F024810C3B0246043DA8F1B3
:1049F000040E03440898A2F10C0601F1100C00F11A
:104A0000200A00F13009DDF804B008F11004103775
:104A1000103209980D9157ED026A01385CED025A87
:104A20000BF1080B54ED027A0CF1080C75EEA62A76
:104A300012ED023A17ED017A75EEE65A5CED036A63
:104A400004F1080437EEA25A52ED010A36EE872A25
:104A500014ED036A36EEC77A0AF1100A75EE036A9E
:104A600007F1080772EEE72AA6F1080637EE671A83
:104A700009F118094CED046A77EE877A54ED036A60
:104A800076EE251A12ED015A31EE031A72EE266AFD
:104A900002F1080277EEC37AA3F1080372EEC32A8B
:104AA00076EE856A32EE462A35EEC66A4CED036A2A
:104AB00071EEE01A96ED047A32EE602ADEED004ADD
:104AC00036EE206A95ED005A34EE873A93ED040AEB
:104AD000D6ED036A74EEC73A5EED015A75EE408A70
:104AE00075EE030A93ED034A35EEA67A55ED014AB9
:104AF00075EEE65A70EE806A33EE453A37EE649A08
:104B000016EE901A73EEE40A38EEA58A4EF80819EC
:104B100074EE644A15ED015A70EE840AD3ED036A0F
:104B200078EEE55A37EE057A33EE405A39EE443ADC
:104B300037EE267A74EEE34A8EED017A1BED037AA6
:104B40005BED046A67EE618A21EE070A20EEA64A51
:104B500066EEC83AA1EEA60AE1EE268AF0EE446AB5
:104B6000E0EE873AE8EE076A04ED040A44ED038AB2
:104B700013EE901A45F80819C5ED016A1AED077A87
:104B80005AED086A27EE434A62EE071A67EE623A68
:104B900025EE077AA5EE664AE2EE263AA3EE667A9D
:104BA000E2EEA61A47ED041A47ED033A86ED044AF1
:104BB00086ED037A59ED0C6A19ED0B7A24EEA65AAC
:104BC00067EE873A27EE463A26EEE54AE6EE263AC3
:104BD000A7EEA63AF0EE446AF0EE457AE4EE876A74
:104BE000E5EE877A42ED043A02ED033AC3ED046A3A
:104BF000C3ED037A7FF40FAF0998019CC3000D99B0
:104C000000EB400204EB001001900498184404905B
:104C10000398184403900698184406900098184486
:104C2000009005981844029B03EBC2030590029381
:104C3000049E0846009B96ED007AD3ED007A04238B
:104C4000069D77EE275A059FD5ED006A37EE677A05
:104C500097ED003A36EEA55A0099D6ED014A75EE69
:104C6000E65A91ED014A35EE035AD7ED012A34EEAA
:104C7000846AD5ED017A74EEC44ABDF82C4086ED05
:104C8000005A77EE873A95ED015A75EEC35A97EDC3
:104C9000012A34EEE64A36EE055A089A73EEE23AF5
:104CA000214634EE034A35EE025A36EE676A77EE55
:104CB000677A86ED015A76EEA46A039E36EE626A42
:104CC00077EEA27A96ED017A76EEC36AD6ED004AC7
:104CD00024EE075A019E27EE637AA3EEA45AA4EEAF
:104CE000247A85ED005A85ED017A96ED017AD6EDAC
:104CF000004A26EE075A009D27EE657A2E46A5EE5D
:104D0000A45AA6EE247A86ED005A85ED017A029D1A
:104D100095ED017AD5ED005A3D4626EE876A27EEDD
:104D2000677AA7EEA56AA6EEA57A85ED006A87EDFB
:104D3000017A00F08FF80C9D404621466A680423F2
:104D400000F088F8079821466A68042300F082F88A
:104D500021466A6804230A980FB0BDEC048BBDE8B5
:104D6000F04F00F077B800BF012A2DE9F041064668
:104D700017460C469846058853D0B5F5807F4BD032
:104D800011D8202D48D05FD9402D16D0802D03D1C9
:104D900021463046FFF7E8FCB8F1000F16D1012F8D
:104DA0001BD0BDE8F081B5F5806FF1D048D9B5F5DD
:104DB000006F31D0B5F5805FEED1012372682946CE
:104DC000204600F047F8B8F1000FE8D0B26820465E
:104DD000B189FFF7A1FC012FE3D107EE905AB7EE9E
:104DE000007AF8EE677AC7EE276A002DD9D004F171
:104DF0000801002311ED027A013351ED017A0831E7
:104E00009D4227EE267A67EEE67A01ED047A41EDBF
:104E1000037AEFD1BDE8F08121463046FFF764FD0B
:104E2000BAE7A5B101F10C03002253ED027A013279
:104E30000833F1EE677A954243ED047AF5D19CE7A9
:104E4000B5F5007FB9D0A7E7102DA1D0A4E7002BBE
:104E5000A7D0BBE72DE9F04F9E4603468B468A4616
:104E6000043304462DED108B98469DB09FEDBF9AFC
:104E700019901B921A934FEADB004FF000094FEA9A
:104E8000CB034FEA800C119041010093A0EB0C0280
:104E9000C30084446718D2001C1A02934FEACC0363
:104EA00000EB4000BE180493E30075180693C3009E
:104EB000AC18039303011198059303016018024491
:104EC0000193009B02EB010CD7ED006AD94490EDF1
:104ED000007A95ED003ACA459CED004A18ED015A5A
:104EE000D4ED007A96ED006A75EE262AD2ED005ACE
:104EF00035EE665A76EE033A77EE876A36EE436A07
:104F000077EEC77A35EE847A75EEC45A72EEA64A09
:104F100072EEE62A76EE656A33EE874AF0EE451ABF
:104F2000A6EEC95A34EE843A74EEC44A36EE256AC7
:104F3000B0EE672A08ED013AE6EE891AC7ED004A9D
:104F4000B0EE453ADCED015A95ED015AA6EE092A7C
:104F5000D0ED010AE6EE497AD6ED016A33EEC76A72
:104F600092ED014AD4ED014A76EEC53A34EE658AF7
:104F700097ED010A76EE856A98ED007A34EEE05AF4
:104F800034EE254A33EE881A77EE405A74EEA04A82
:104F9000F0EE450A73EEC83A37EE007AE1EE090A00
:104FA000A1EE495AB0EE651AE3EEC95AA3EE891A8A
:104FB00076EE843A76EEC46A37EE244A37EE647AA7
:104FC00032EEA60A74EE234A72EEE66A34EE634AC3
:104FD00077EE462AC8ED004A36EE077A984487ED08
:104FE000014A71EEA03A84ED000A33EE054AC0EDA5
:104FF000006A71EEE04AC4ED012A33EE455A80EDB5
:10500000017A31EE426A35EEE77AC6ED003A72EE89
:10501000016ACCED004A77EEA57A85ED004A1F447F
:1050200082ED005A1C4486ED016A1844CCED016AF9
:105030001E4485ED017A9C44C2ED017A1D441A4458
:105040003FF642AF0093119B072B40F2D381049BA4
:105050004FEACE040298083103F1080C1B9B12940E
:1050600008301A19059E019F0EEB8E091319039D36
:10507000083708361C46069B083508330F94029300
:10508000129BA3EB0E08129BE318CDF804800EEBE5
:105090004E081C460593199B5918DF199E199C440C
:1050A0000C91194609975F190144129808960B91C3
:1050B0002146029C014407971C44019D0E180833A9
:1050C000274606940F9CED000D930E943418189506
:1050D0004FEAC8052318CDF828C004960394159507
:1050E00002934FEA081317934FEAC9034FF00109DF
:1050F00016934FEA0E1314934FEA4E13BE461393C2
:10510000009B0E9CC846049894ED00DAD4ED019AF9
:10511000059CD0ED00BAD4ED018A049C039894ED6F
:10512000010A039C90ED00BAD4ED017A0B98029C21
:10513000059D1090CDED007A0298D4ED017AD2ED64
:1051400000DAD5ED00CAD0ED00AA92ED01AADDF893
:105150001CC0089F91ED00CA099E0A9D0C980D9AEB
:1051600091ED018ACDED017A109C01E0F304353F09
:10517000D5ED003AD84490ED007AD7ED007AC245DB
:105180009CED006ADEED006AD2ED004A96ED005A11
:1051900094ED004A34EE872A74EEC74A92ED01FA84
:1051A00035EE277A74EE232A35EE675A76EE267AA4
:1051B00072EE07EA36EE666A32EEA73A34EE634ADA
:1051C00032EE472A7EEE836A34EE067AB0EE45EA86
:1051D000C2ED006A34EE464AD5ED016AA7EE495A9F
:1051E00094ED016AA7EE09EADEED013AF0EE640AF9
:1051F0009CED017A76EE66FA90ED011A76EE266A5B
:1052000037EE636A7FEE415AE4EE090A72EEE72A4E
:10521000D6ED017AE4EE494A97ED014A37EE237A5A
:1052200077EEC41A7FEEC63A77EE847A3FEE866A4E
:10523000B0EE654AE3EEC95A3FEE01FAA3EE894AA1
:10524000F0EE613AE6EE491A36EE871AE6EE093AD2
:1052500036EEC77A3EEEC33A74EE4EEAB0EE616ABD
:105260007FEE271A7FEE677A72EE076A31EEC1FA97
:1052700032EE477A37EEE22A72EEA77A70EEA32A70
:1052800070EEE33A75EEC50A35EE255A68EE0F5A10
:1052900063EE48FA3EEE044AECEE035A34EE86EA38
:1052A00074EEC64A26EEE96AECEE0FFA9DED00FABE
:1052B00071EE811AB0EE653A69EE825AADEE026A7D
:1052C0009DED002A2FEE27FAC2ED011A27EE422AA1
:1052D00080ED003AEDEE265AC0ED01FA6AEE2E6A34
:1052E0001A44ABEE07FA184422EECA7A86ED016A38
:1052F000ABEE272ADDED017AEDEEA26ADDED012AA3
:1053000067EE847AC6ED005A63EEE22A1E44ADEEE3
:10531000AE7A87ED00FA6EEE40EAEAEEA37A87ED08
:10532000012A60EE203AC4ED006AEAEE842A1F44A6
:10533000EBEEA0EA28EE854A84ED017A64EEE80AF5
:105340001C44EBEE8E3ACEED007AACEEA44AECEEC5
:10535000850ACEED012A9E44C5ED003AC5ED01EA6D
:105360001D448CED004ACCED010A9C443FF600AF91
:105370000E9A09F101091498024415980E92059AA3
:10538000024416980592139A1144049A02441798FD
:105390000492039A024418980392029A02440292D9
:1053A0000D9A08320D920C9A08320C920B9A083220
:1053B0000B920A9A08320A92099A08320992089ABC
:1053C00008320892079A08320792069A0832069223
:1053D0000F9C11982246484506D02046129CDDF8C5
:1053E00018E020440F908CE68346BDF848E0DDE9E4
:1053F000194840E51DB0BDEC108BBDE8F08F00BF33
:105400002DE9F041174606460C46002B58D11A46A6
:105410000123FFF7A9FCD4ED017AB0EE006AD4EDC8
:10542000005A77EEA77A3288F6EE006A7569013A7B
:1054300007F11006B0EE677A1035D5EE867A04EBE8
:10544000C200B0EE664A04F11003A5EE867A083871
:1054500067EEA67A27EE267AC7ED017A87ED007A05
:1054600053ED015A013AD0ED036A0833D0ED027AC8
:10547000002A53ED044A35EEE67A15ED016A76EE20
:10548000A56A37EEE45A55ED025A77EEA47AA0F1F8
:10549000080005F1080506F10806A6EE057AE5EE16
:1054A000857AA5EEE67AE6EE267A27EE047A67EEAE
:1054B000847A06ED037A46ED047AD1DCBDE8F0810A
:1054C000D1ED007AB6EE004AD1ED016AB0F800C025
:1054D00037EEA67A406977EEE67A0CF1FF3C27EECC
:1054E000047ABCF1000F67EE847A4FEACC0182EDBA
:1054F000007AC2ED017A37DD083904F11005103069
:105500000C4402F1100155ED015ABCF1010CD4ED2F
:10551000036A05F10805D4ED027A00F1080055EDA3
:10552000044A35EEE67A10ED046A76EEA56A34EEAA
:10553000E75A50ED035AB1EE466AA4F1080477EE3B
:10554000A47A01F10801A5EE857AE6EE057AA6EEC9
:10555000267AE5EEE67A27EE047A67EE847A01EDA4
:10556000037A41ED047ACED11A46394630460123FA
:10557000BDE8F041FFF7F8BB10B4069CA468A4078F
:1055800003D15DF8044B00F04DB86FF002005DF8F8
:10559000044B7047C2688B685200486803FB02F3F3
:1055A00000FB03F040007047D86810F0030F34D1BF
:1055B000F0B50C698BB064BB4E6956BB8C68012C8E
:1055C00027D1CC68012C24D11C46D3F808C00D4645
:1055D0001746169BD4E900126C6A02FB0CF2049089
:1055E00001FB02F1286A089402910790149A12991B
:1055F000D5E900400594159C0690E4681098D7E919
:1056000000750394CDE9007500F088FD30460BB0BD
:10561000F0BD6FF002000BB0F0BD6FF002007047FC
:10562000002070472DE9F04FB5B093460068439EC7
:105630001A88D6F80CC0DF681FFA8CF91B902C92E0
:10564000CDF8A4903F9DD3E90139D5E901540893E1
:10565000D6E901300E6918964E6926968E6819961D
:10566000CE682796D1E900621E920A6A496A1F92A3
:105670002091DBF800102C9A2191DBF80410229184
:10568000002A00F060811FFA84FE00211FFA85F8CD
:105690001FFA87FA2E91CDF868E071461EFB08FECE
:1056A0001FFA8CF74246BDF820C01EFB0AFE84B2EA
:1056B00001FB02F299B2CDF844C01FFA8EFC02FB46
:1056C0000AF31FFA89F52391D34604FB01F1C3F3D2
:1056D0008F0314940CF0030452001B980E9533941E
:1056E00034B205FB0AF54FEA4A0A2D93013B1294A6
:1056F0000AFB0204119A9BB2CDF8A88002FB05F2C6
:1057000001333297319207FB01F2CDF8A0C03092FD
:105710009A0000EBC3030F9516942B935346DA4679
:105720002F929B46239B002B00F0FE80449B1D93F1
:105730001B9B089300231C93149B002B5FD000221B
:10574000BDF89C301C99139201FB03F3BDF898201F
:105750009B1A2A9A9A1815930D920E9A02FB03F33C
:10576000179315990D9A91423EDA1A988946BDF819
:10577000643000FB0BF21399109201FB03F3BDF8A8
:1057800060209A1A179B8718D3180A923E9A0AFB30
:10579000032309930E9BBB42A8BF3B4698460A9B36
:1057A000BB4218DA119A4A458CBF002201221146E9
:1057B0000E9A9A4200F3CB801C46089D013428467D
:1057C0005A46002125F024F9A7425D44F6DC089BE7
:1057D000109A13440893099B09F101090F9A134485
:1057E00009930D9B9945DAD1169B089A934200F0D4
:1057F000D680139B149A01339A421393B1DC1C9BFD
:10580000239A013393421C9396DB1B9B089A934285
:1058100000F08A80329B002B00F08680219ADDF810
:1058200008C1A2F1040E229A409DA2F104081D9A1B
:10583000CDE908AB02EB03099246DDF8CCB0429B00
:10584000002B00F0CD802D9BDCF80010002B00F029
:10585000CC802F9B1B9CEF1855F8043B20682FFA37
:1058600083F24FEA33232FFA83F3C3EA2246C2EAD4
:10587000034323FB00116368083426FB0311BD4278
:10588000EAD12B9BBBF1000F17D095F90020BBF19B
:10589000010F188810FB021100F0A98095F9012072
:1058A000BBF1020F588810FB021100F0A2809A8809
:1058B000033515F9013C12FB031158F8040F4FF0A2
:1058C0008043002420EAE0722493259400285EF8A7
:1058D000043F01FA02F2DDE92467C3FB02674FEAE5
:1058E000D67242EA47030DDC404201228240013A6F
:1058F00003EA020103414FEA620248BF01329142CA
:10590000C8BF01331E9A0CF1040C13441F9A934232
:10591000B8BF1346209A9342A8BF13460AF8013B2A
:10592000CA458CD1DDE908AB3E9A31992E9B0A44D9
:10593000309901333E92449A2E930A4444922C9A11
:105940009A427FF4EFAE002035B0BDE8F08FCDE98C
:105950000B97DDE908561C460F46DDF848900BE032
:105960004B467FB9013429463046524601F024FEA9
:1059700044455D4456440CDA002C5A464FF0000171
:105980002846EDDA013425F043F85D445644444599
:10599000F2DBDDE90B97BC42FFF610AF17E71D9B6A
:1059A000139DBDF98000289A01351E99BDF97C40F0
:1059B0000693219E429B049205930191229B0390A2
:1059C000299A1B99009640980294139500F0B8F814
:1059D000149B1D90AB421B9B08933FF7C2AE0EE792
:1059E00019462D9B002B7FF434AF1B9B4AE70135F2
:1059F00063E7023561E700BFC2688B6892004868C0
:105A000003FB02F300FB03F0704700BF2DE9F04FEA
:105A100083B00F690C4686460C9D90461E46009545
:105A2000DDE90DC5DDE90FBA0195DDE911590FB9C1
:105A30004F69D7B16B68012B02D17368012B2AD053
:105A40002146019C334642467046CDF84890119558
:105A5000CDF840A0CDF83CB0CDE90DC4009C0C942D
:105A600003B0BDE8F04FFFF7DDBDDF68BF07E1D150
:105A70008F68012FDED1CF68012FDBD1DCF80870F1
:105A8000012FD7D1DCF80470012FD3D103B0BDE8CA
:105A9000F04FFFF789BDDCF80430012BD0D1AB68A3
:105AA0009B07CDD13368012BCAD12146019C3346D7
:105AB00042467046CDF848901195CDF840A0CDF8FB
:105AC0003CB0CDE90DC4009C0C9403B0BDE8F04F90
:105AD000FFF752BD10B40C46016909B9416959B1CB
